{
  "contractName": "Voting",
  "abi": [
    {
      "constant": true,
      "inputs": [
        {
          "name": "",
          "type": "address"
        },
        {
          "name": "",
          "type": "uint256"
        }
      ],
      "name": "votes",
      "outputs": [
        {
          "name": "",
          "type": "bool"
        }
      ],
      "payable": false,
      "stateMutability": "view",
      "type": "function"
    },
    {
      "constant": true,
      "inputs": [
        {
          "name": "",
          "type": "address"
        }
      ],
      "name": "voters",
      "outputs": [
        {
          "name": "",
          "type": "bool"
        }
      ],
      "payable": false,
      "stateMutability": "view",
      "type": "function"
    },
    {
      "constant": true,
      "inputs": [],
      "name": "admin",
      "outputs": [
        {
          "name": "",
          "type": "address"
        }
      ],
      "payable": false,
      "stateMutability": "view",
      "type": "function"
    },
    {
      "inputs": [],
      "payable": false,
      "stateMutability": "nonpayable",
      "type": "constructor"
    },
    {
      "constant": false,
      "inputs": [
        {
          "name": "_voters",
          "type": "address[]"
        }
      ],
      "name": "addVoters",
      "outputs": [],
      "payable": false,
      "stateMutability": "nonpayable",
      "type": "function"
    },
    {
      "constant": false,
      "inputs": [
        {
          "name": "name",
          "type": "string"
        },
        {
          "name": "choices",
          "type": "string[]"
        },
        {
          "name": "offset",
          "type": "uint256"
        }
      ],
      "name": "createBallot",
      "outputs": [],
      "payable": false,
      "stateMutability": "nonpayable",
      "type": "function"
    },
    {
      "constant": false,
      "inputs": [
        {
          "name": "ballotId",
          "type": "uint256"
        },
        {
          "name": "choiceId",
          "type": "uint256"
        }
      ],
      "name": "vote",
      "outputs": [],
      "payable": false,
      "stateMutability": "nonpayable",
      "type": "function"
    },
    {
      "constant": true,
      "inputs": [
        {
          "name": "ballotId",
          "type": "uint256"
        }
      ],
      "name": "results",
      "outputs": [
        {
          "components": [
            {
              "name": "id",
              "type": "uint256"
            },
            {
              "name": "name",
              "type": "string"
            },
            {
              "name": "votes",
              "type": "uint256"
            }
          ],
          "name": "",
          "type": "tuple[]"
        }
      ],
      "payable": false,
      "stateMutability": "view",
      "type": "function"
    }
  ],
  "bytecode": "0x608060405234801561001057600080fd5b5033600360006101000a81548173ffffffffffffffffffffffffffffffffffffffff021916908373ffffffffffffffffffffffffffffffffffffffff160217905550611297806100616000396000f3fe608060405234801561001057600080fd5b506004361061009a576000357c0100000000000000000000000000000000000000000000000000000000900480639f2524ee116100785780639f2524ee14610107578063a3ec138d14610137578063b384abef14610167578063f851a440146101835761009a565b80631b0c27da1461009f57806320faae8e146100cf5780638203373a146100eb575b600080fd5b6100b960048036036100b49190810190610cc6565b6101a1565b6040516100c69190610fec565b60405180910390f35b6100e960048036036100e49190810190610c47565b610328565b005b61010560048036036101009190810190610c02565b6104f2565b005b610121600480360361011c9190810190610bc6565b610628565b60405161012e919061100e565b60405180910390f35b610151600480360361014c9190810190610b9d565b610657565b60405161015e919061100e565b60405180910390f35b610181600480360361017c9190810190610cef565b610677565b005b61018b6108bc565b6040516101989190610fd1565b60405180910390f35b6060600160008381526020019081526020016000206003015442101515156101fe576040517f08c379a00000000000000000000000000000000000000000000000000000000081526004016101f5906110a9565b60405180910390fd5b60016000838152602001908152602001600020600201805480602002602001604051908101604052809291908181526020016000905b8282101561031d57838290600052602060002090600302016060604051908101604052908160008201548152602001600182018054600181600116156101000203166002900480601f0160208091040260200160405190810160405280929190818152602001828054600181600116156101000203166002900480156102fb5780601f106102d0576101008083540402835291602001916102fb565b820191906000526020600020905b8154815290600101906020018083116102de57829003601f168201915b5050505050815260200160028201548152505081526020019060010190610234565b505050509050919050565b600360009054906101000a900473ffffffffffffffffffffffffffffffffffffffff1673ffffffffffffffffffffffffffffffffffffffff163373ffffffffffffffffffffffffffffffffffffffff161415156103ba576040517f08c379a00000000000000000000000000000000000000000000000000000000081526004016103b190611069565b60405180910390fd5b600254600160006002548152602001908152602001600020600001819055508260016000600254815260200190815260200160002060010190805190602001906104059291906108e2565b508042016001600060025481526020019081526020016000206003018190555060008090505b82518110156104ec57600160006002548152602001908152602001600020600201606060405190810160405280838152602001858481518110151561046c57fe5b9060200190602002015181526020016000815250908060018154018082558091505090600182039060005260206000209060030201600090919290919091506000820151816000015560208201518160010190805190602001906104d1929190610962565b5060408201518160020155505050808060010191505061042b565b50505050565b600360009054906101000a900473ffffffffffffffffffffffffffffffffffffffff1673ffffffffffffffffffffffffffffffffffffffff163373ffffffffffffffffffffffffffffffffffffffff16141515610584576040517f08c379a000000000000000000000000000000000000000000000000000000000815260040161057b90611069565b60405180910390fd5b60008090505b8282905081101561062357600160008085858581811015156105a857fe5b9050602002013573ffffffffffffffffffffffffffffffffffffffff1673ffffffffffffffffffffffffffffffffffffffff1673ffffffffffffffffffffffffffffffffffffffff16815260200190815260200160002060006101000a81548160ff021916908315150217905550808060010191505061058a565b505050565b60046020528160005260406000206020528060005260406000206000915091509054906101000a900460ff1681565b60006020528060005260406000206000915054906101000a900460ff1681565b600115156000803373ffffffffffffffffffffffffffffffffffffffff1673ffffffffffffffffffffffffffffffffffffffff16815260200190815260200160002060009054906101000a900460ff16151514151561070b576040517f08c379a000000000000000000000000000000000000000000000000000000000815260040161070290611089565b60405180910390fd5b60001515600460003373ffffffffffffffffffffffffffffffffffffffff1673ffffffffffffffffffffffffffffffffffffffff168152602001908152602001600020600084815260200190815260200160002060009054906101000a900460ff1615151415156107b1576040517f08c379a00000000000000000000000000000000000000000000000000000000081526004016107a890611029565b60405180910390fd5b60016000838152602001908152602001600020600301544210151561080b576040517f08c379a000000000000000000000000000000000000000000000000000000000815260040161080290611049565b60405180910390fd5b6001600460003373ffffffffffffffffffffffffffffffffffffffff1673ffffffffffffffffffffffffffffffffffffffff168152602001908152602001600020600084815260200190815260200160002060006101000a81548160ff021916908315150217905550600160008381526020019081526020016000206002018181548110151561089757fe5b9060005260206000209060030201600201600081548092919060010191905055505050565b600360009054906101000a900473ffffffffffffffffffffffffffffffffffffffff1681565b828054600181600116156101000203166002900490600052602060002090601f016020900481019282601f1061092357805160ff1916838001178555610951565b82800160010185558215610951579182015b82811115610950578251825591602001919060010190610935565b5b50905061095e91906109e2565b5090565b828054600181600116156101000203166002900490600052602060002090601f016020900481019282601f106109a357805160ff19168380011785556109d1565b828001600101855582156109d1579182015b828111156109d05782518255916020019190600101906109b5565b5b5090506109de91906109e2565b5090565b610a0491905b80821115610a005760008160009055506001016109e8565b5090565b90565b6000610a1382356111ee565b905092915050565b60008083601f8401121515610a2f57600080fd5b8235905067ffffffffffffffff811115610a4857600080fd5b602083019150836020820283011115610a6057600080fd5b9250929050565b600082601f8301121515610a7a57600080fd5b8135610a8d610a88826110f6565b6110c9565b9150818183526020840193506020810190508360005b83811015610ad35781358601610ab98882610add565b845260208401935060208301925050600181019050610aa3565b5050505092915050565b600082601f8301121515610af057600080fd5b8135610b03610afe8261111e565b6110c9565b91508082526020830160208301858383011115610b1f57600080fd5b610b2a83828461120a565b50505092915050565b600082601f8301121515610b4657600080fd5b8135610b59610b548261114a565b6110c9565b91508082526020830160208301858383011115610b7557600080fd5b610b8083828461120a565b50505092915050565b6000610b958235611200565b905092915050565b600060208284031215610baf57600080fd5b6000610bbd84828501610a07565b91505092915050565b60008060408385031215610bd957600080fd5b6000610be785828601610a07565b9250506020610bf885828601610b89565b9150509250929050565b60008060208385031215610c1557600080fd5b600083013567ffffffffffffffff811115610c2f57600080fd5b610c3b85828601610a1b565b92509250509250929050565b600080600060608486031215610c5c57600080fd5b600084013567ffffffffffffffff811115610c7657600080fd5b610c8286828701610b33565b935050602084013567ffffffffffffffff811115610c9f57600080fd5b610cab86828701610a67565b9250506040610cbc86828701610b89565b9150509250925092565b600060208284031215610cd857600080fd5b6000610ce684828501610b89565b91505092915050565b60008060408385031215610d0257600080fd5b6000610d1085828601610b89565b9250506020610d2185828601610b89565b9150509250929050565b610d34816111a6565b82525050565b6000610d4582611183565b80845260208401935083602082028501610d5e85611176565b60005b84811015610d97578383038852610d79838351610f72565b9250610d8482611199565b9150602088019750600181019050610d61565b508196508694505050505092915050565b610db1816111b8565b82525050565b6000610dc28261118e565b808452610dd6816020860160208601611219565b610ddf8161124c565b602085010191505092915050565b6000602582527f766f7465722063616e206f6e6c7920766f7465206f6e636520666f722061206260208301527f616c6c6f740000000000000000000000000000000000000000000000000000006040830152606082019050919050565b6000602382527f63616e206f6e6c7920766f746520756e74696c2062616c6c6f7420656e64206460208301527f61746500000000000000000000000000000000000000000000000000000000006040830152606082019050919050565b6000600a82527f6f6e6c792061646d696e000000000000000000000000000000000000000000006020830152604082019050919050565b6000601482527f6f6e6c7920766f746572732063616e20766f74650000000000000000000000006020830152604082019050919050565b6000602e82527f63616e6e6f7420736565207468652062616c6c6f7420726573756c742062656660208301527f6f72652062616c6c6f7420656e640000000000000000000000000000000000006040830152606082019050919050565b6000606083016000830151610f8a6000860182610fc2565b5060208301518482036020860152610fa28282610db7565b9150506040830151610fb76040860182610fc2565b508091505092915050565b610fcb816111e4565b82525050565b6000602082019050610fe66000830184610d2b565b92915050565b600060208201905081810360008301526110068184610d3a565b905092915050565b60006020820190506110236000830184610da8565b92915050565b6000602082019050818103600083015261104281610ded565b9050919050565b6000602082019050818103600083015261106281610e4a565b9050919050565b6000602082019050818103600083015261108281610ea7565b9050919050565b600060208201905081810360008301526110a281610ede565b9050919050565b600060208201905081810360008301526110c281610f15565b9050919050565b6000604051905081810181811067ffffffffffffffff821117156110ec57600080fd5b8060405250919050565b600067ffffffffffffffff82111561110d57600080fd5b602082029050602081019050919050565b600067ffffffffffffffff82111561113557600080fd5b601f19601f8301169050602081019050919050565b600067ffffffffffffffff82111561116157600080fd5b601f19601f8301169050602081019050919050565b6000602082019050919050565b600081519050919050565b600081519050919050565b6000602082019050919050565b60006111b1826111c4565b9050919050565b60008115159050919050565b600073ffffffffffffffffffffffffffffffffffffffff82169050919050565b6000819050919050565b60006111f9826111c4565b9050919050565b6000819050919050565b82818337600083830152505050565b60005b8381101561123757808201518184015260208101905061121c565b83811115611246576000848401525b50505050565b6000601f19601f830116905091905056fea265627a7a72305820332e2a4fd5f413f6d5ab91f398eb55ead95c01c11ba345b0a0e9d5b92d14b1836c6578706572696d656e74616cf50037",
  "source": "pragma solidity ^0.5.2;\npragma experimental ABIEncoderV2; // to return an array of a struct\n\ncontract Voting {\n    // Check address approved to gvote in smart contract\n    // Use key value data structure (mapping in Solidity)\n    // If address = true, can vote; if address = false, can't vote\n    mapping(address => bool) public voters;\n    // create a struct for each voting choice\n    struct Choice {\n        uint256 id;\n        string name;\n        uint256 votes;\n    }\n    // Data structure for each vote\n    struct Ballot {\n        uint256 id;\n        string name;\n        // yes, you can have an array of struct within a struct\n        Choice[] choices;\n        // establish when there is the end of the ballot\n        uint256 end;\n    }\n    // Container for ballot struct\n    mapping(uint256 => Ballot) ballots;\n    // integer for next ballot to be created\n    uint256 nextBallotId;\n    // define admin variable (to use below)\n    address public admin;\n    // mapping of mapping (like nested object in JavaScript)\n    mapping(address => mapping(uint256 => bool)) public votes;\n\n    // Constructor function for when we deploy the smart contract\n    constructor() public {\n        // save address of sender of transaction and make them the admin so they can control the execution\n        admin = msg.sender;\n    }\n\n    // function to add voters to the smart contract\n    // add modifier so only the admin can do this\n    function addVoters(address[] calldata _voters) external onlyAdmin {\n        // loop through all of the _voters array and save address in voter array of smart contract\n        // for loop\n        for (uint256 i = 0; i < _voters.length; i++) {\n            // access voters mapping and access current entry of voters argument with [i] and set it to true\n            // it will check that the voter did in fact vote or not vote\n            voters[_voters[i]] = true;\n        }\n    }\n\n    // function to create the ballots: receive 3 arguments\n    function createBallot(\n        string memory name,\n        string[] memory choices,\n        uint256 offset\n    )\n        public\n        // attach the modifier to only the admin can do it\n        onlyAdmin\n    {\n        // array needs to be put in memory\n        ballots[nextBallotId].id = nextBallotId;\n        ballots[nextBallotId].name = name;\n        ballots[nextBallotId].end = now + offset;\n        for (uint256 i = 0; i < choices.length; i++) {\n            // access ballot struct again\n            // since array in storage, we have access to push method\n            ballots[nextBallotId].choices.push(Choice(i, choices[i], 0));\n        }\n    }\n\n    // function to be able to vote\n    function vote(uint256 ballotId, uint256 choiceId) external {\n        // requier that voters of the sender of the transaction is true\n        // means this voter has been approved before\n        require(voters[msg.sender] == true, \"only voters can vote\");\n        // ensure past voters can't vote again...can only vote once\n        require(\n            votes[msg.sender][ballotId] == false,\n            \"voter can only vote once for a ballot\"\n        );\n        // ensure the ballot has not already ended\n        require(\n            now < ballots[ballotId].end,\n            \"can only vote until ballot end date\"\n        );\n        // set votes of the voter true and then prevent double voting\n        votes[msg.sender][ballotId] = true;\n        // allow voters here\n        ballots[ballotId].choices[choiceId].votes++;\n    }\n\n    // function to get results of the ballot\n    function results(uint256 ballotId) external view returns (Choice[] memory) {\n        // don't want to return the vote results before ballot end\n        require(\n            now >= ballots[ballotId].end,\n            \"cannot see the ballot result before ballot end\"\n        );\n        // return result\n        return ballots[ballotId].choices;\n    }\n\n    // Need some access controls so not everyone can create a Ballot or vote in the ballots\n    // Modifer so only the admin of the smart contract can run the 2 functions\n    modifier onlyAdmin() {\n        require(msg.sender == admin, \"only admin\");\n        // execute the function for which the modifier is attached\n        _;\n    }\n}\n",
  "sourcePath": "/Users/interstellarx/Documents/GitHub/EatTheBlocks/Dapp30/VotingDapp/contracts/Voting.sol",
  "compiler": {
    "name": "solc",
    "version": "0.5.2+commit.1df8f40c.Emscripten.clang"
  },
  "schemaVersion": "3.4.4",
  "updatedAt": "2021-12-24T17:50:21.942Z",
  "devdoc": {
    "methods": {}
  },
  "userdoc": {
    "methods": {}
  }
}